{
  "_format": "hh-sol-artifact-1",
  "contractName": "TeamVesting",
  "sourceName": "wk/TeamVesting.sol",
  "abi": [
    {
      "inputs": [
        {
          "internalType": "address",
          "name": "_token",
          "type": "address"
        },
        {
          "internalType": "address",
          "name": "_beneficiary",
          "type": "address"
        },
        {
          "internalType": "address",
          "name": "_admin",
          "type": "address"
        }
      ],
      "stateMutability": "nonpayable",
      "type": "constructor"
    },
    {
      "inputs": [
        {
          "internalType": "address",
          "name": "owner",
          "type": "address"
        }
      ],
      "name": "OwnableInvalidOwner",
      "type": "error"
    },
    {
      "inputs": [
        {
          "internalType": "address",
          "name": "account",
          "type": "address"
        }
      ],
      "name": "OwnableUnauthorizedAccount",
      "type": "error"
    },
    {
      "anonymous": false,
      "inputs": [
        {
          "indexed": true,
          "internalType": "address",
          "name": "previousOwner",
          "type": "address"
        },
        {
          "indexed": true,
          "internalType": "address",
          "name": "newOwner",
          "type": "address"
        }
      ],
      "name": "OwnershipTransferred",
      "type": "event"
    },
    {
      "anonymous": false,
      "inputs": [
        {
          "indexed": false,
          "internalType": "uint256",
          "name": "amount",
          "type": "uint256"
        }
      ],
      "name": "Released",
      "type": "event"
    },
    {
      "inputs": [],
      "name": "CLIFF",
      "outputs": [
        {
          "internalType": "uint256",
          "name": "",
          "type": "uint256"
        }
      ],
      "stateMutability": "view",
      "type": "function"
    },
    {
      "inputs": [],
      "name": "DURATION",
      "outputs": [
        {
          "internalType": "uint256",
          "name": "",
          "type": "uint256"
        }
      ],
      "stateMutability": "view",
      "type": "function"
    },
    {
      "inputs": [],
      "name": "beneficiary",
      "outputs": [
        {
          "internalType": "address",
          "name": "",
          "type": "address"
        }
      ],
      "stateMutability": "view",
      "type": "function"
    },
    {
      "inputs": [],
      "name": "owner",
      "outputs": [
        {
          "internalType": "address",
          "name": "",
          "type": "address"
        }
      ],
      "stateMutability": "view",
      "type": "function"
    },
    {
      "inputs": [],
      "name": "releasable",
      "outputs": [
        {
          "internalType": "uint256",
          "name": "",
          "type": "uint256"
        }
      ],
      "stateMutability": "view",
      "type": "function"
    },
    {
      "inputs": [],
      "name": "release",
      "outputs": [],
      "stateMutability": "nonpayable",
      "type": "function"
    },
    {
      "inputs": [],
      "name": "released",
      "outputs": [
        {
          "internalType": "uint256",
          "name": "",
          "type": "uint256"
        }
      ],
      "stateMutability": "view",
      "type": "function"
    },
    {
      "inputs": [],
      "name": "renounceOwnership",
      "outputs": [],
      "stateMutability": "nonpayable",
      "type": "function"
    },
    {
      "inputs": [],
      "name": "startTime",
      "outputs": [
        {
          "internalType": "uint256",
          "name": "",
          "type": "uint256"
        }
      ],
      "stateMutability": "view",
      "type": "function"
    },
    {
      "inputs": [],
      "name": "token",
      "outputs": [
        {
          "internalType": "contract IERC20",
          "name": "",
          "type": "address"
        }
      ],
      "stateMutability": "view",
      "type": "function"
    },
    {
      "inputs": [
        {
          "internalType": "address",
          "name": "newOwner",
          "type": "address"
        }
      ],
      "name": "transferOwnership",
      "outputs": [],
      "stateMutability": "nonpayable",
      "type": "function"
    },
    {
      "inputs": [],
      "name": "vestedAmount",
      "outputs": [
        {
          "internalType": "uint256",
          "name": "",
          "type": "uint256"
        }
      ],
      "stateMutability": "view",
      "type": "function"
    }
  ],
  "bytecode": "0x60e060405234801561000f575f80fd5b506040516108b03803806108b083398101604081905261002e91610179565b806001600160a01b03811661005d57604051631e4fbdf760e01b81525f60048201526024015b60405180910390fd5b6100668161010f565b506001600160a01b0383166100aa5760405162461bcd60e51b815260206004820152600a602482015269054563a746f6b656e3d360b41b6044820152606401610054565b6001600160a01b0382166100f35760405162461bcd60e51b815260206004820152601060248201526f054563a62656e65666963696172793d360841b6044820152606401610054565b506001600160a01b039182166080521660a0524260c0526101b9565b5f80546001600160a01b038381166001600160a01b0319831681178455604051919092169283917f8be0079c531659141344cd1fd0a4f28419497f9722a3daafe3b4186f6b6457e09190a35050565b80516001600160a01b0381168114610174575f80fd5b919050565b5f805f6060848603121561018b575f80fd5b6101948461015e565b92506101a26020850161015e565b91506101b06040850161015e565b90509250925092565b60805160a05160c0516106a461020c5f395f81816101290152818161025a0152818161029601526102cf01525f818160d801526103b201525f8181610196015281816101dc01526103e101526106a45ff3fe608060405234801561000f575f80fd5b50600436106100b1575f3560e01c80638da5cb5b1161006e5780638da5cb5b146101535780639613252114610163578063b87592f21461016c578063f2fde38b14610176578063fbccedae14610189578063fc0c546a14610191575f80fd5b80631be05289146100b557806338af3eed146100d357806344b1231f14610112578063715018a61461011a57806378e979251461012457806386d1a69f1461014b575b5f80fd5b6100c06305a39a8081565b6040519081526020015b60405180910390f35b6100fa7f000000000000000000000000000000000000000000000000000000000000000081565b6040516001600160a01b0390911681526020016100ca565b6100c06101b8565b61012261030e565b005b6100c07f000000000000000000000000000000000000000000000000000000000000000081565b610122610321565b5f546001600160a01b03166100fa565b6100c060015481565b6100c062ed4e0081565b610122610184366004610595565b6104c2565b6100c06104ff565b6100fa7f000000000000000000000000000000000000000000000000000000000000000081565b6001546040516370a0823160e01b81523060048201525f9182916001600160a01b037f000000000000000000000000000000000000000000000000000000000000000016906370a0823190602401602060405180830381865afa158015610221573d5f803e3d5ffd5b505050506040513d601f19601f8201168201806040525081019061024591906105c2565b61024f91906105ed565b905061027e62ed4e007f00000000000000000000000000000000000000000000000000000000000000006105ed565b42101561028c575f91505090565b6102ba6305a39a807f00000000000000000000000000000000000000000000000000000000000000006105ed565b42106102c557919050565b6305a39a806102f47f000000000000000000000000000000000000000000000000000000000000000042610606565b6102fe9083610619565b6103089190610630565b91505090565b61031661051a565b61031f5f610546565b565b5f60015461032d6101b8565b6103379190610606565b90505f81116103855760405162461bcd60e51b815260206004820152601560248201527454563a6e6f7468696e6720746f2072656c6561736560581b60448201526064015b60405180910390fd5b8060015f82825461039691906105ed565b909155505060405163a9059cbb60e01b81526001600160a01b037f000000000000000000000000000000000000000000000000000000000000000081166004830152602482018390527f0000000000000000000000000000000000000000000000000000000000000000169063a9059cbb906044016020604051808303815f875af1158015610427573d5f803e3d5ffd5b505050506040513d601f19601f8201168201806040525081019061044b919061064f565b61048c5760405162461bcd60e51b815260206004820152601260248201527115158e9d1c985b9cd9995c8819985a5b195960721b604482015260640161037c565b6040518181527ffb81f9b30d73d830c3544b34d827c08142579ee75710b490bab0b3995468c5659060200160405180910390a150565b6104ca61051a565b6001600160a01b0381166104f357604051631e4fbdf760e01b81525f600482015260240161037c565b6104fc81610546565b50565b5f60015461050b6101b8565b6105159190610606565b905090565b5f546001600160a01b0316331461031f5760405163118cdaa760e01b815233600482015260240161037c565b5f80546001600160a01b038381166001600160a01b0319831681178455604051919092169283917f8be0079c531659141344cd1fd0a4f28419497f9722a3daafe3b4186f6b6457e09190a35050565b5f602082840312156105a5575f80fd5b81356001600160a01b03811681146105bb575f80fd5b9392505050565b5f602082840312156105d2575f80fd5b5051919050565b634e487b7160e01b5f52601160045260245ffd5b80820180821115610600576106006105d9565b92915050565b81810381811115610600576106006105d9565b8082028115828204841417610600576106006105d9565b5f8261064a57634e487b7160e01b5f52601260045260245ffd5b500490565b5f6020828403121561065f575f80fd5b815180151581146105bb575f80fdfea2646970667358221220967f106a5391b80efce8ae60b8fb5dce6d9cd315acebc5698d778edf1d2a737e64736f6c63430008180033",
  "linkReferences": {},
  "deployedLinkReferences": {}
}