{
  "_format": "hh-sol-artifact-1",
  "contractName": "WKToken",
  "sourceName": "wk/WKToken.sol",
  "abi": [
    {
      "inputs": [
        {
          "internalType": "address",
          "name": "treasury",
          "type": "address"
        },
        {
          "internalType": "address",
          "name": "ecosystemFund",
          "type": "address"
        },
        {
          "internalType": "address",
          "name": "teamVesting",
          "type": "address"
        },
        {
          "internalType": "address",
          "name": "admin",
          "type": "address"
        }
      ],
      "stateMutability": "nonpayable",
      "type": "constructor"
    },
    {
      "inputs": [],
      "name": "AccessControlBadConfirmation",
      "type": "error"
    },
    {
      "inputs": [
        {
          "internalType": "address",
          "name": "account",
          "type": "address"
        },
        {
          "internalType": "bytes32",
          "name": "neededRole",
          "type": "bytes32"
        }
      ],
      "name": "AccessControlUnauthorizedAccount",
      "type": "error"
    },
    {
      "inputs": [],
      "name": "CheckpointUnorderedInsertion",
      "type": "error"
    },
    {
      "inputs": [],
      "name": "ECDSAInvalidSignature",
      "type": "error"
    },
    {
      "inputs": [
        {
          "internalType": "uint256",
          "name": "length",
          "type": "uint256"
        }
      ],
      "name": "ECDSAInvalidSignatureLength",
      "type": "error"
    },
    {
      "inputs": [
        {
          "internalType": "bytes32",
          "name": "s",
          "type": "bytes32"
        }
      ],
      "name": "ECDSAInvalidSignatureS",
      "type": "error"
    },
    {
      "inputs": [
        {
          "internalType": "uint256",
          "name": "increasedSupply",
          "type": "uint256"
        },
        {
          "internalType": "uint256",
          "name": "cap",
          "type": "uint256"
        }
      ],
      "name": "ERC20ExceededSafeSupply",
      "type": "error"
    },
    {
      "inputs": [
        {
          "internalType": "address",
          "name": "spender",
          "type": "address"
        },
        {
          "internalType": "uint256",
          "name": "allowance",
          "type": "uint256"
        },
        {
          "internalType": "uint256",
          "name": "needed",
          "type": "uint256"
        }
      ],
      "name": "ERC20InsufficientAllowance",
      "type": "error"
    },
    {
      "inputs": [
        {
          "internalType": "address",
          "name": "sender",
          "type": "address"
        },
        {
          "internalType": "uint256",
          "name": "balance",
          "type": "uint256"
        },
        {
          "internalType": "uint256",
          "name": "needed",
          "type": "uint256"
        }
      ],
      "name": "ERC20InsufficientBalance",
      "type": "error"
    },
    {
      "inputs": [
        {
          "internalType": "address",
          "name": "approver",
          "type": "address"
        }
      ],
      "name": "ERC20InvalidApprover",
      "type": "error"
    },
    {
      "inputs": [
        {
          "internalType": "address",
          "name": "receiver",
          "type": "address"
        }
      ],
      "name": "ERC20InvalidReceiver",
      "type": "error"
    },
    {
      "inputs": [
        {
          "internalType": "address",
          "name": "sender",
          "type": "address"
        }
      ],
      "name": "ERC20InvalidSender",
      "type": "error"
    },
    {
      "inputs": [
        {
          "internalType": "address",
          "name": "spender",
          "type": "address"
        }
      ],
      "name": "ERC20InvalidSpender",
      "type": "error"
    },
    {
      "inputs": [
        {
          "internalType": "uint256",
          "name": "deadline",
          "type": "uint256"
        }
      ],
      "name": "ERC2612ExpiredSignature",
      "type": "error"
    },
    {
      "inputs": [
        {
          "internalType": "address",
          "name": "signer",
          "type": "address"
        },
        {
          "internalType": "address",
          "name": "owner",
          "type": "address"
        }
      ],
      "name": "ERC2612InvalidSigner",
      "type": "error"
    },
    {
      "inputs": [
        {
          "internalType": "uint256",
          "name": "timepoint",
          "type": "uint256"
        },
        {
          "internalType": "uint48",
          "name": "clock",
          "type": "uint48"
        }
      ],
      "name": "ERC5805FutureLookup",
      "type": "error"
    },
    {
      "inputs": [],
      "name": "ERC6372InconsistentClock",
      "type": "error"
    },
    {
      "inputs": [],
      "name": "EnforcedPause",
      "type": "error"
    },
    {
      "inputs": [],
      "name": "ExpectedPause",
      "type": "error"
    },
    {
      "inputs": [
        {
          "internalType": "address",
          "name": "account",
          "type": "address"
        },
        {
          "internalType": "uint256",
          "name": "currentNonce",
          "type": "uint256"
        }
      ],
      "name": "InvalidAccountNonce",
      "type": "error"
    },
    {
      "inputs": [],
      "name": "InvalidShortString",
      "type": "error"
    },
    {
      "inputs": [],
      "name": "ReentrancyGuardReentrantCall",
      "type": "error"
    },
    {
      "inputs": [
        {
          "internalType": "uint8",
          "name": "bits",
          "type": "uint8"
        },
        {
          "internalType": "uint256",
          "name": "value",
          "type": "uint256"
        }
      ],
      "name": "SafeCastOverflowedUintDowncast",
      "type": "error"
    },
    {
      "inputs": [
        {
          "internalType": "string",
          "name": "str",
          "type": "string"
        }
      ],
      "name": "StringTooLong",
      "type": "error"
    },
    {
      "inputs": [
        {
          "internalType": "uint256",
          "name": "expiry",
          "type": "uint256"
        }
      ],
      "name": "VotesExpiredSignature",
      "type": "error"
    },
    {
      "anonymous": false,
      "inputs": [
        {
          "indexed": true,
          "internalType": "address",
          "name": "owner",
          "type": "address"
        },
        {
          "indexed": true,
          "internalType": "address",
          "name": "spender",
          "type": "address"
        },
        {
          "indexed": false,
          "internalType": "uint256",
          "name": "value",
          "type": "uint256"
        }
      ],
      "name": "Approval",
      "type": "event"
    },
    {
      "anonymous": false,
      "inputs": [
        {
          "indexed": true,
          "internalType": "address",
          "name": "delegator",
          "type": "address"
        },
        {
          "indexed": true,
          "internalType": "address",
          "name": "fromDelegate",
          "type": "address"
        },
        {
          "indexed": true,
          "internalType": "address",
          "name": "toDelegate",
          "type": "address"
        }
      ],
      "name": "DelegateChanged",
      "type": "event"
    },
    {
      "anonymous": false,
      "inputs": [
        {
          "indexed": true,
          "internalType": "address",
          "name": "delegate",
          "type": "address"
        },
        {
          "indexed": false,
          "internalType": "uint256",
          "name": "previousVotes",
          "type": "uint256"
        },
        {
          "indexed": false,
          "internalType": "uint256",
          "name": "newVotes",
          "type": "uint256"
        }
      ],
      "name": "DelegateVotesChanged",
      "type": "event"
    },
    {
      "anonymous": false,
      "inputs": [],
      "name": "EIP712DomainChanged",
      "type": "event"
    },
    {
      "anonymous": false,
      "inputs": [
        {
          "indexed": true,
          "internalType": "address",
          "name": "admin",
          "type": "address"
        },
        {
          "indexed": false,
          "internalType": "address",
          "name": "token",
          "type": "address"
        },
        {
          "indexed": false,
          "internalType": "address",
          "name": "to",
          "type": "address"
        },
        {
          "indexed": false,
          "internalType": "uint256",
          "name": "amount",
          "type": "uint256"
        }
      ],
      "name": "EmergencyRecover",
      "type": "event"
    },
    {
      "anonymous": false,
      "inputs": [
        {
          "indexed": true,
          "internalType": "address",
          "name": "to",
          "type": "address"
        },
        {
          "indexed": false,
          "internalType": "uint256",
          "name": "amount",
          "type": "uint256"
        },
        {
          "indexed": false,
          "internalType": "string",
          "name": "reason",
          "type": "string"
        }
      ],
      "name": "Minted",
      "type": "event"
    },
    {
      "anonymous": false,
      "inputs": [
        {
          "indexed": false,
          "internalType": "address",
          "name": "account",
          "type": "address"
        }
      ],
      "name": "Paused",
      "type": "event"
    },
    {
      "anonymous": false,
      "inputs": [
        {
          "indexed": true,
          "internalType": "address",
          "name": "user",
          "type": "address"
        },
        {
          "indexed": false,
          "internalType": "uint256",
          "name": "reward",
          "type": "uint256"
        }
      ],
      "name": "RewardClaimed",
      "type": "event"
    },
    {
      "anonymous": false,
      "inputs": [
        {
          "indexed": true,
          "internalType": "bytes32",
          "name": "role",
          "type": "bytes32"
        },
        {
          "indexed": true,
          "internalType": "bytes32",
          "name": "previousAdminRole",
          "type": "bytes32"
        },
        {
          "indexed": true,
          "internalType": "bytes32",
          "name": "newAdminRole",
          "type": "bytes32"
        }
      ],
      "name": "RoleAdminChanged",
      "type": "event"
    },
    {
      "anonymous": false,
      "inputs": [
        {
          "indexed": true,
          "internalType": "bytes32",
          "name": "role",
          "type": "bytes32"
        },
        {
          "indexed": true,
          "internalType": "address",
          "name": "account",
          "type": "address"
        },
        {
          "indexed": true,
          "internalType": "address",
          "name": "sender",
          "type": "address"
        }
      ],
      "name": "RoleGranted",
      "type": "event"
    },
    {
      "anonymous": false,
      "inputs": [
        {
          "indexed": true,
          "internalType": "bytes32",
          "name": "role",
          "type": "bytes32"
        },
        {
          "indexed": true,
          "internalType": "address",
          "name": "account",
          "type": "address"
        },
        {
          "indexed": true,
          "internalType": "address",
          "name": "sender",
          "type": "address"
        }
      ],
      "name": "RoleRevoked",
      "type": "event"
    },
    {
      "anonymous": false,
      "inputs": [
        {
          "indexed": true,
          "internalType": "address",
          "name": "user",
          "type": "address"
        },
        {
          "indexed": false,
          "internalType": "uint256",
          "name": "amount",
          "type": "uint256"
        }
      ],
      "name": "Staked",
      "type": "event"
    },
    {
      "anonymous": false,
      "inputs": [
        {
          "indexed": true,
          "internalType": "address",
          "name": "from",
          "type": "address"
        },
        {
          "indexed": true,
          "internalType": "address",
          "name": "to",
          "type": "address"
        },
        {
          "indexed": false,
          "internalType": "uint256",
          "name": "value",
          "type": "uint256"
        }
      ],
      "name": "Transfer",
      "type": "event"
    },
    {
      "anonymous": false,
      "inputs": [
        {
          "indexed": false,
          "internalType": "address",
          "name": "account",
          "type": "address"
        }
      ],
      "name": "Unpaused",
      "type": "event"
    },
    {
      "anonymous": false,
      "inputs": [
        {
          "indexed": true,
          "internalType": "address",
          "name": "user",
          "type": "address"
        },
        {
          "indexed": false,
          "internalType": "uint256",
          "name": "principal",
          "type": "uint256"
        },
        {
          "indexed": false,
          "internalType": "uint256",
          "name": "reward",
          "type": "uint256"
        }
      ],
      "name": "Unstaked",
      "type": "event"
    },
    {
      "inputs": [],
      "name": "CLOCK_MODE",
      "outputs": [
        {
          "internalType": "string",
          "name": "",
          "type": "string"
        }
      ],
      "stateMutability": "view",
      "type": "function"
    },
    {
      "inputs": [],
      "name": "DEFAULT_ADMIN_ROLE",
      "outputs": [
        {
          "internalType": "bytes32",
          "name": "",
          "type": "bytes32"
        }
      ],
      "stateMutability": "view",
      "type": "function"
    },
    {
      "inputs": [],
      "name": "DOMAIN_SEPARATOR",
      "outputs": [
        {
          "internalType": "bytes32",
          "name": "",
          "type": "bytes32"
        }
      ],
      "stateMutability": "view",
      "type": "function"
    },
    {
      "inputs": [],
      "name": "MAX_DAILY_MINT",
      "outputs": [
        {
          "internalType": "uint256",
          "name": "",
          "type": "uint256"
        }
      ],
      "stateMutability": "view",
      "type": "function"
    },
    {
      "inputs": [],
      "name": "MAX_SUPPLY",
      "outputs": [
        {
          "internalType": "uint256",
          "name": "",
          "type": "uint256"
        }
      ],
      "stateMutability": "view",
      "type": "function"
    },
    {
      "inputs": [],
      "name": "MINTER_ROLE",
      "outputs": [
        {
          "internalType": "bytes32",
          "name": "",
          "type": "bytes32"
        }
      ],
      "stateMutability": "view",
      "type": "function"
    },
    {
      "inputs": [],
      "name": "PAUSER_ROLE",
      "outputs": [
        {
          "internalType": "bytes32",
          "name": "",
          "type": "bytes32"
        }
      ],
      "stateMutability": "view",
      "type": "function"
    },
    {
      "inputs": [],
      "name": "STAKE_APY_BPS",
      "outputs": [
        {
          "internalType": "uint256",
          "name": "",
          "type": "uint256"
        }
      ],
      "stateMutability": "view",
      "type": "function"
    },
    {
      "inputs": [
        {
          "internalType": "address",
          "name": "owner",
          "type": "address"
        },
        {
          "internalType": "address",
          "name": "spender",
          "type": "address"
        }
      ],
      "name": "allowance",
      "outputs": [
        {
          "internalType": "uint256",
          "name": "",
          "type": "uint256"
        }
      ],
      "stateMutability": "view",
      "type": "function"
    },
    {
      "inputs": [
        {
          "internalType": "address",
          "name": "spender",
          "type": "address"
        },
        {
          "internalType": "uint256",
          "name": "value",
          "type": "uint256"
        }
      ],
      "name": "approve",
      "outputs": [
        {
          "internalType": "bool",
          "name": "",
          "type": "bool"
        }
      ],
      "stateMutability": "nonpayable",
      "type": "function"
    },
    {
      "inputs": [
        {
          "internalType": "address",
          "name": "account",
          "type": "address"
        }
      ],
      "name": "balanceOf",
      "outputs": [
        {
          "internalType": "uint256",
          "name": "",
          "type": "uint256"
        }
      ],
      "stateMutability": "view",
      "type": "function"
    },
    {
      "inputs": [
        {
          "internalType": "uint256",
          "name": "value",
          "type": "uint256"
        }
      ],
      "name": "burn",
      "outputs": [],
      "stateMutability": "nonpayable",
      "type": "function"
    },
    {
      "inputs": [
        {
          "internalType": "address",
          "name": "account",
          "type": "address"
        },
        {
          "internalType": "uint256",
          "name": "value",
          "type": "uint256"
        }
      ],
      "name": "burnFrom",
      "outputs": [],
      "stateMutability": "nonpayable",
      "type": "function"
    },
    {
      "inputs": [
        {
          "internalType": "address",
          "name": "account",
          "type": "address"
        },
        {
          "internalType": "uint32",
          "name": "pos",
          "type": "uint32"
        }
      ],
      "name": "checkpoints",
      "outputs": [
        {
          "components": [
            {
              "internalType": "uint48",
              "name": "_key",
              "type": "uint48"
            },
            {
              "internalType": "uint208",
              "name": "_value",
              "type": "uint208"
            }
          ],
          "internalType": "struct Checkpoints.Checkpoint208",
          "name": "",
          "type": "tuple"
        }
      ],
      "stateMutability": "view",
      "type": "function"
    },
    {
      "inputs": [],
      "name": "claimReward",
      "outputs": [],
      "stateMutability": "nonpayable",
      "type": "function"
    },
    {
      "inputs": [],
      "name": "clock",
      "outputs": [
        {
          "internalType": "uint48",
          "name": "",
          "type": "uint48"
        }
      ],
      "stateMutability": "view",
      "type": "function"
    },
    {
      "inputs": [],
      "name": "decimals",
      "outputs": [
        {
          "internalType": "uint8",
          "name": "",
          "type": "uint8"
        }
      ],
      "stateMutability": "view",
      "type": "function"
    },
    {
      "inputs": [
        {
          "internalType": "address",
          "name": "delegatee",
          "type": "address"
        }
      ],
      "name": "delegate",
      "outputs": [],
      "stateMutability": "nonpayable",
      "type": "function"
    },
    {
      "inputs": [
        {
          "internalType": "address",
          "name": "delegatee",
          "type": "address"
        },
        {
          "internalType": "uint256",
          "name": "nonce",
          "type": "uint256"
        },
        {
          "internalType": "uint256",
          "name": "expiry",
          "type": "uint256"
        },
        {
          "internalType": "uint8",
          "name": "v",
          "type": "uint8"
        },
        {
          "internalType": "bytes32",
          "name": "r",
          "type": "bytes32"
        },
        {
          "internalType": "bytes32",
          "name": "s",
          "type": "bytes32"
        }
      ],
      "name": "delegateBySig",
      "outputs": [],
      "stateMutability": "nonpayable",
      "type": "function"
    },
    {
      "inputs": [
        {
          "internalType": "address",
          "name": "account",
          "type": "address"
        }
      ],
      "name": "delegates",
      "outputs": [
        {
          "internalType": "address",
          "name": "",
          "type": "address"
        }
      ],
      "stateMutability": "view",
      "type": "function"
    },
    {
      "inputs": [],
      "name": "eip712Domain",
      "outputs": [
        {
          "internalType": "bytes1",
          "name": "fields",
          "type": "bytes1"
        },
        {
          "internalType": "string",
          "name": "name",
          "type": "string"
        },
        {
          "internalType": "string",
          "name": "version",
          "type": "string"
        },
        {
          "internalType": "uint256",
          "name": "chainId",
          "type": "uint256"
        },
        {
          "internalType": "address",
          "name": "verifyingContract",
          "type": "address"
        },
        {
          "internalType": "bytes32",
          "name": "salt",
          "type": "bytes32"
        },
        {
          "internalType": "uint256[]",
          "name": "extensions",
          "type": "uint256[]"
        }
      ],
      "stateMutability": "view",
      "type": "function"
    },
    {
      "inputs": [
        {
          "internalType": "address",
          "name": "token",
          "type": "address"
        },
        {
          "internalType": "address",
          "name": "to",
          "type": "address"
        },
        {
          "internalType": "uint256",
          "name": "amount",
          "type": "uint256"
        }
      ],
      "name": "emergencyRecover",
      "outputs": [],
      "stateMutability": "nonpayable",
      "type": "function"
    },
    {
      "inputs": [
        {
          "internalType": "uint256",
          "name": "timepoint",
          "type": "uint256"
        }
      ],
      "name": "getPastTotalSupply",
      "outputs": [
        {
          "internalType": "uint256",
          "name": "",
          "type": "uint256"
        }
      ],
      "stateMutability": "view",
      "type": "function"
    },
    {
      "inputs": [
        {
          "internalType": "address",
          "name": "account",
          "type": "address"
        },
        {
          "internalType": "uint256",
          "name": "timepoint",
          "type": "uint256"
        }
      ],
      "name": "getPastVotes",
      "outputs": [
        {
          "internalType": "uint256",
          "name": "",
          "type": "uint256"
        }
      ],
      "stateMutability": "view",
      "type": "function"
    },
    {
      "inputs": [
        {
          "internalType": "bytes32",
          "name": "role",
          "type": "bytes32"
        }
      ],
      "name": "getRoleAdmin",
      "outputs": [
        {
          "internalType": "bytes32",
          "name": "",
          "type": "bytes32"
        }
      ],
      "stateMutability": "view",
      "type": "function"
    },
    {
      "inputs": [
        {
          "internalType": "address",
          "name": "account",
          "type": "address"
        }
      ],
      "name": "getVotes",
      "outputs": [
        {
          "internalType": "uint256",
          "name": "",
          "type": "uint256"
        }
      ],
      "stateMutability": "view",
      "type": "function"
    },
    {
      "inputs": [
        {
          "internalType": "bytes32",
          "name": "role",
          "type": "bytes32"
        },
        {
          "internalType": "address",
          "name": "account",
          "type": "address"
        }
      ],
      "name": "grantRole",
      "outputs": [],
      "stateMutability": "nonpayable",
      "type": "function"
    },
    {
      "inputs": [
        {
          "internalType": "bytes32",
          "name": "role",
          "type": "bytes32"
        },
        {
          "internalType": "address",
          "name": "account",
          "type": "address"
        }
      ],
      "name": "hasRole",
      "outputs": [
        {
          "internalType": "bool",
          "name": "",
          "type": "bool"
        }
      ],
      "stateMutability": "view",
      "type": "function"
    },
    {
      "inputs": [
        {
          "internalType": "address",
          "name": "to",
          "type": "address"
        },
        {
          "internalType": "uint256",
          "name": "amount",
          "type": "uint256"
        },
        {
          "internalType": "string",
          "name": "reason",
          "type": "string"
        }
      ],
      "name": "mint",
      "outputs": [],
      "stateMutability": "nonpayable",
      "type": "function"
    },
    {
      "inputs": [],
      "name": "mintDayStart",
      "outputs": [
        {
          "internalType": "uint256",
          "name": "",
          "type": "uint256"
        }
      ],
      "stateMutability": "view",
      "type": "function"
    },
    {
      "inputs": [],
      "name": "mintedToday",
      "outputs": [
        {
          "internalType": "uint256",
          "name": "",
          "type": "uint256"
        }
      ],
      "stateMutability": "view",
      "type": "function"
    },
    {
      "inputs": [],
      "name": "name",
      "outputs": [
        {
          "internalType": "string",
          "name": "",
          "type": "string"
        }
      ],
      "stateMutability": "view",
      "type": "function"
    },
    {
      "inputs": [
        {
          "internalType": "address",
          "name": "owner",
          "type": "address"
        }
      ],
      "name": "nonces",
      "outputs": [
        {
          "internalType": "uint256",
          "name": "",
          "type": "uint256"
        }
      ],
      "stateMutability": "view",
      "type": "function"
    },
    {
      "inputs": [
        {
          "internalType": "address",
          "name": "account",
          "type": "address"
        }
      ],
      "name": "numCheckpoints",
      "outputs": [
        {
          "internalType": "uint32",
          "name": "",
          "type": "uint32"
        }
      ],
      "stateMutability": "view",
      "type": "function"
    },
    {
      "inputs": [],
      "name": "pause",
      "outputs": [],
      "stateMutability": "nonpayable",
      "type": "function"
    },
    {
      "inputs": [],
      "name": "paused",
      "outputs": [
        {
          "internalType": "bool",
          "name": "",
          "type": "bool"
        }
      ],
      "stateMutability": "view",
      "type": "function"
    },
    {
      "inputs": [
        {
          "internalType": "address",
          "name": "user",
          "type": "address"
        }
      ],
      "name": "pendingReward",
      "outputs": [
        {
          "internalType": "uint256",
          "name": "",
          "type": "uint256"
        }
      ],
      "stateMutability": "view",
      "type": "function"
    },
    {
      "inputs": [
        {
          "internalType": "address",
          "name": "owner",
          "type": "address"
        },
        {
          "internalType": "address",
          "name": "spender",
          "type": "address"
        },
        {
          "internalType": "uint256",
          "name": "value",
          "type": "uint256"
        },
        {
          "internalType": "uint256",
          "name": "deadline",
          "type": "uint256"
        },
        {
          "internalType": "uint8",
          "name": "v",
          "type": "uint8"
        },
        {
          "internalType": "bytes32",
          "name": "r",
          "type": "bytes32"
        },
        {
          "internalType": "bytes32",
          "name": "s",
          "type": "bytes32"
        }
      ],
      "name": "permit",
      "outputs": [],
      "stateMutability": "nonpayable",
      "type": "function"
    },
    {
      "inputs": [],
      "name": "remainingSupply",
      "outputs": [
        {
          "internalType": "uint256",
          "name": "",
          "type": "uint256"
        }
      ],
      "stateMutability": "view",
      "type": "function"
    },
    {
      "inputs": [
        {
          "internalType": "bytes32",
          "name": "role",
          "type": "bytes32"
        },
        {
          "internalType": "address",
          "name": "callerConfirmation",
          "type": "address"
        }
      ],
      "name": "renounceRole",
      "outputs": [],
      "stateMutability": "nonpayable",
      "type": "function"
    },
    {
      "inputs": [
        {
          "internalType": "bytes32",
          "name": "role",
          "type": "bytes32"
        },
        {
          "internalType": "address",
          "name": "account",
          "type": "address"
        }
      ],
      "name": "revokeRole",
      "outputs": [],
      "stateMutability": "nonpayable",
      "type": "function"
    },
    {
      "inputs": [
        {
          "internalType": "uint256",
          "name": "amount",
          "type": "uint256"
        }
      ],
      "name": "stake",
      "outputs": [],
      "stateMutability": "nonpayable",
      "type": "function"
    },
    {
      "inputs": [
        {
          "internalType": "address",
          "name": "user",
          "type": "address"
        }
      ],
      "name": "stakeInfo",
      "outputs": [
        {
          "internalType": "uint256",
          "name": "amount",
          "type": "uint256"
        },
        {
          "internalType": "uint256",
          "name": "since",
          "type": "uint256"
        },
        {
          "internalType": "uint256",
          "name": "pending",
          "type": "uint256"
        }
      ],
      "stateMutability": "view",
      "type": "function"
    },
    {
      "inputs": [
        {
          "internalType": "address",
          "name": "",
          "type": "address"
        }
      ],
      "name": "stakes",
      "outputs": [
        {
          "internalType": "uint256",
          "name": "amount",
          "type": "uint256"
        },
        {
          "internalType": "uint256",
          "name": "since",
          "type": "uint256"
        }
      ],
      "stateMutability": "view",
      "type": "function"
    },
    {
      "inputs": [
        {
          "internalType": "bytes4",
          "name": "interfaceId",
          "type": "bytes4"
        }
      ],
      "name": "supportsInterface",
      "outputs": [
        {
          "internalType": "bool",
          "name": "",
          "type": "bool"
        }
      ],
      "stateMutability": "view",
      "type": "function"
    },
    {
      "inputs": [],
      "name": "symbol",
      "outputs": [
        {
          "internalType": "string",
          "name": "",
          "type": "string"
        }
      ],
      "stateMutability": "view",
      "type": "function"
    },
    {
      "inputs": [],
      "name": "totalStaked",
      "outputs": [
        {
          "internalType": "uint256",
          "name": "",
          "type": "uint256"
        }
      ],
      "stateMutability": "view",
      "type": "function"
    },
    {
      "inputs": [],
      "name": "totalSupply",
      "outputs": [
        {
          "internalType": "uint256",
          "name": "",
          "type": "uint256"
        }
      ],
      "stateMutability": "view",
      "type": "function"
    },
    {
      "inputs": [
        {
          "internalType": "address",
          "name": "to",
          "type": "address"
        },
        {
          "internalType": "uint256",
          "name": "value",
          "type": "uint256"
        }
      ],
      "name": "transfer",
      "outputs": [
        {
          "internalType": "bool",
          "name": "",
          "type": "bool"
        }
      ],
      "stateMutability": "nonpayable",
      "type": "function"
    },
    {
      "inputs": [
        {
          "internalType": "address",
          "name": "from",
          "type": "address"
        },
        {
          "internalType": "address",
          "name": "to",
          "type": "address"
        },
        {
          "internalType": "uint256",
          "name": "value",
          "type": "uint256"
        }
      ],
      "name": "transferFrom",
      "outputs": [
        {
          "internalType": "bool",
          "name": "",
          "type": "bool"
        }
      ],
      "stateMutability": "nonpayable",
      "type": "function"
    },
    {
      "inputs": [],
      "name": "unpause",
      "outputs": [],
      "stateMutability": "nonpayable",
      "type": "function"
    },
    {
      "inputs": [
        {
          "internalType": "uint256",
          "name": "amount",
          "type": "uint256"
        }
      ],
      "name": "unstake",
      "outputs": [],
      "stateMutability": "nonpayable",
      "type": "function"
    }
  ],
  "bytecode": "0x61016060405234801562000011575f80fd5b5060405162003f0838038062003f08833981016040819052620000349162000d0b565b6040518060400160405280600d81526020016c2bb2b63625a7a1902a37b5b2b760991b81525080604051806040016040528060018152602001603160f81b8152506040518060400160405280600d81526020016c2bb2b63625a7a1902a37b5b2b760991b81525060405180604001604052806002815260200161574b60f01b8152508160039081620000c7919062000e02565b506004620000d6828262000e02565b50620000e8915083905060056200040b565b61012052620000f98160066200040b565b61014052815160208084019190912060e052815190820120610100524660a0526200018660e05161010051604080517f8b73c3c69bb8fe3d512ecc4cf759cc79239f7b179b0ffacaa9a75d522b39400f60208201529081019290925260608201524660808201523060a08201525f9060c00160405160208183030381529060405280519060200120905090565b60805250503060c0525060017f9b779b17422d0df92223018b32b4d1fa46e071723d6817e2486d003becc55f00556001600160a01b038416620002005760405162461bcd60e51b815260206004820152600d60248201526c0574b3a74726561737572793d3609c1b60448201526064015b60405180910390fd5b6001600160a01b038316620002495760405162461bcd60e51b815260206004820152600e60248201526d0574b3a65636f73797374656d3d360941b6044820152606401620001f7565b6001600160a01b038216620002905760405162461bcd60e51b815260206004820152600c60248201526b0574b3a76657374696e673d360a41b6044820152606401620001f7565b6001600160a01b038116620002d55760405162461bcd60e51b815260206004820152600a6024820152690574b3a61646d696e3d360b41b6044820152606401620001f7565b620002e15f8262000443565b506200030e7f9f2df0fed2c77648de5860a4cc508cd0818c85b8b8a1ab4ceeef8d981c8956a68262000443565b506200033b7f65d7a28e3265b37a6474929f336521b332c1681b933f6cb9f3376673440d862a8262000443565b5042600e5560408051808201909152600c81526b54726561737572792033302560a01b60208201526200037e9085906b09b18ab5df7180b6b800000090620004f2565b620003c2836b06765c793fa10079d00000006040518060400160405280600d81526020016c45636f73797374656d2032302560981b815250620004f260201b60201c565b62000401826b033b2e3c9fd0803ce8000000604051806040016040528060088152602001675465616d2031302560c01b815250620004f260201b60201c565b5050505062000ffa565b5f6020835110156200042a576200042283620005bc565b90506200043d565b8162000437848262000e02565b5060ff90505b92915050565b5f828152600b602090815260408083206001600160a01b038516845290915281205460ff16620004ea575f838152600b602090815260408083206001600160a01b03861684529091529020805460ff19166001179055620004a13390565b6001600160a01b0316826001600160a01b0316847f2f8788117e7eff1d82e926ec794901d17c78024a50270940304540a733656f0d60405160405180910390a45060016200043d565b505f6200043d565b6b204fce5e3e25026110000000826200050a60025490565b62000516919062000ee2565b1115620005665760405162461bcd60e51b815260206004820152601560248201527f574b3a65786365656473204d41585f535550504c5900000000000000000000006044820152606401620001f7565b620005728383620005fe565b826001600160a01b03167fe7cd4ce7f2a465edc730269a1305e8a48bad821e8fb7e152ec413829c01a53c48383604051620005af92919062000f3d565b60405180910390a2505050565b5f80829050601f81511115620005e9578260405163305a27a960e01b8152600401620001f7919062000f5f565b8051620005f68262000f73565b179392505050565b6001600160a01b038216620006295760405163ec442f0560e01b81525f6004820152602401620001f7565b620006365f83836200063a565b5050565b600c5460ff1615806200065457506001600160a01b038316155b806200066757506001600160a01b038216155b620006a15760405162461bcd60e51b815260206004820152600960248201526815d2ce9c185d5cd95960ba1b6044820152606401620001f7565b620006ae838383620006b3565b505050565b620006c083838362000721565b6001600160a01b03831662000714575f620006da60025490565b90506001600160d01b03808211156200071157604051630e58ae9360e11b81526004810183905260248101829052604401620001f7565b50505b620006ae83838362000850565b6001600160a01b0383166200074f578060025f82825462000743919062000ee2565b90915550620007c19050565b6001600160a01b0383165f9081526020819052604090205481811015620007a35760405163391434e360e21b81526001600160a01b03851660048201526024810182905260448101839052606401620001f7565b6001600160a01b0384165f9081526020819052604090209082900390555b6001600160a01b038216620007df57600280548290039055620007fd565b6001600160a01b0382165f9081526020819052604090208054820190555b816001600160a01b0316836001600160a01b03167fddf252ad1be2c89b69c2b068fc378daa952ba7f163c4a11628f55a4df523b3ef836040516200084391815260200190565b60405180910390a3505050565b6001600160a01b038316620008855762000882600a62001474620008e760201b176200087c84620008fb565b62000934565b50505b6001600160a01b038216620008b457620008b1600a6200147f6200097060201b176200087c84620008fb565b50505b6001600160a01b038381165f90815260086020526040808220548584168352912054620006ae929182169116836200097d565b5f620008f4828462000f97565b9392505050565b5f6001600160d01b0382111562000930576040516306dfcc6560e41b815260d0600482015260248101839052604401620001f7565b5090565b5f80620009636200094462000adf565b6200095a620009538862000aef565b868860201c565b87919062000b3b565b915091505b935093915050565b5f620008f4828462000fc1565b816001600160a01b0316836001600160a01b0316141580156200099f57505f81115b15620006ae576001600160a01b0383161562000a40576001600160a01b0383165f90815260096020908152604082208291620009ec919062000970901b6200147f176200087c86620008fb565b6001600160d01b031691506001600160d01b03169150846001600160a01b03165f8051602062003ee8833981519152838360405162000a35929190918252602082015260400190565b60405180910390a250505b6001600160a01b03821615620006ae576001600160a01b0382165f9081526009602090815260408220829162000a879190620008e7901b62001474176200087c86620008fb565b6001600160d01b031691506001600160d01b03169150836001600160a01b03165f8051602062003ee8833981519152838360405162000ad0929190918252602082015260400190565b60405180910390a25050505050565b5f62000aea62000b4a565b905090565b80545f90801562000b335762000b198362000b0c60018462000fe4565b5f91825260209091200190565b54660100000000000090046001600160d01b0316620008f4565b5f9392505050565b5f806200096385858562000b56565b5f62000aea4362000cbb565b82545f908190801562000c5d575f62000b768762000b0c60018562000fe4565b805490915065ffffffffffff80821691660100000000000090046001600160d01b031690881682111562000bbd57604051632520601d60e01b815260040160405180910390fd5b8765ffffffffffff168265ffffffffffff160362000bfb57825465ffffffffffff1666010000000000006001600160d01b0389160217835562000c4e565b6040805180820190915265ffffffffffff808a1682526001600160d01b03808a1660208085019182528d54600181018f555f8f815291909120945191519092166601000000000000029216919091179101555b94508593506200096892505050565b50506040805180820190915265ffffffffffff80851682526001600160d01b0380851660208085019182528854600181018a555f8a815291822095519251909316660100000000000002919093161792019190915590508162000968565b5f65ffffffffffff82111562000930576040516306dfcc6560e41b81526030600482015260248101839052604401620001f7565b80516001600160a01b038116811462000d06575f80fd5b919050565b5f805f806080858703121562000d1f575f80fd5b62000d2a8562000cef565b935062000d3a6020860162000cef565b925062000d4a6040860162000cef565b915062000d5a6060860162000cef565b905092959194509250565b634e487b7160e01b5f52604160045260245ffd5b600181811c9082168062000d8e57607f821691505b60208210810362000dad57634e487b7160e01b5f52602260045260245ffd5b50919050565b601f821115620006ae57805f5260205f20601f840160051c8101602085101562000dda5750805b601f840160051c820191505b8181101562000dfb575f815560010162000de6565b5050505050565b81516001600160401b0381111562000e1e5762000e1e62000d65565b62000e368162000e2f845462000d79565b8462000db3565b602080601f83116001811462000e6c575f841562000e545750858301515b5f19600386901b1c1916600185901b17855562000ec6565b5f85815260208120601f198616915b8281101562000e9c5788860151825594840194600190910190840162000e7b565b508582101562000eba57878501515f19600388901b60f8161c191681555b505060018460011b0185555b505050505050565b634e487b7160e01b5f52601160045260245ffd5b808201808211156200043d576200043d62000ece565b5f81518084525f5b8181101562000f1e5760208185018101518683018201520162000f00565b505f602082860101526020601f19601f83011685010191505092915050565b828152604060208201525f62000f57604083018462000ef8565b949350505050565b602081525f620008f4602083018462000ef8565b8051602080830151919081101562000dad575f1960209190910360031b1b16919050565b6001600160d01b0381811683821601908082111562000fba5762000fba62000ece565b5092915050565b6001600160d01b0382811682821603908082111562000fba5762000fba62000ece565b818103818111156200043d576200043d62000ece565b60805160a05160c05160e051610100516101205161014051612e9c6200104c5f395f611b2701525f611afa01525f6117be01525f61179601525f6116f101525f61171b01525f6117450152612e9c5ff3fe608060405234801561000f575f80fd5b50600436106102ff575f3560e01c80637ecebe0011610195578063ad1329d1116100e4578063d53913931161009e578063dd62ed3e11610079578063dd62ed3e146106f1578063e63ab1e914610729578063f1127ed814610750578063f40f0f521461078f575f80fd5b8063d5391393146106af578063d547741f146106d6578063da0239a6146106e9575f80fd5b8063ad1329d114610652578063b7c140dd14610665578063b88a802f1461066e578063c3cda52014610676578063d3fc986414610689578063d505accf1461069c575f80fd5b806391ddadf41161014f5780639e2646fa1161012a5780639e2646fa1461061c578063a217fddf14610625578063a694fc3a1461062c578063a9059cbb1461063f575f80fd5b806391ddadf4146105e257806395d89b41146106015780639ab24eb014610609575f80fd5b80637ecebe001461057d578063817b1cd2146105905780638456cb591461059957806384b0196e146105a15780638e539e8c146105bc57806391d14854146105cf575f80fd5b80633644e51511610251578063587cde1e1161020b5780635c975abb116101e65780635c975abb1461050f5780636fcfff451461051a57806370a082311461054257806379cc67901461056a575f80fd5b8063587cde1e146104a75780635923f705146104ea5780635c19a95c146104fc575f80fd5b80633644e5151461045657806336568abe1461045e5780633a46b1a8146104715780633f4ba83a1461048457806342966c681461048c5780634bf5d7e91461049f575f80fd5b806323b872dd116102bc5780632e9a2412116102975780632e9a2412146104185780632f2ff15d14610421578063313ce5671461043457806332cb6b0c14610443575f80fd5b806323b872dd146103ce578063248a9ca3146103e15780632e17de7814610403575f80fd5b806301ffc9a71461030357806306fdde031461032b578063095ea7b3146103405780631601e6411461035357806316934fc41461038157806318160ddd146103bc575b5f80fd5b61031661031136600461292a565b6107a2565b60405190151581526020015b60405180910390f35b6103336107d8565b604051610322919061299e565b61031661034e3660046129cb565b610868565b6103666103613660046129f3565b61087f565b60408051938452602084019290925290820152606001610322565b6103a761038f3660046129f3565b600f6020525f90815260409020805460019091015482565b60408051928352602083019190915201610322565b6002545b604051908152602001610322565b6103166103dc366004612a0c565b6108ba565b6103c06103ef366004612a45565b5f908152600b602052604090206001015490565b610416610411366004612a45565b6108dd565b005b6103c06101f481565b61041661042f366004612a5c565b610a37565b60405160128152602001610322565b6103c06b204fce5e3e2502611000000081565b6103c0610a61565b61041661046c366004612a5c565b610a6f565b6103c061047f3660046129cb565b610aa7565b610416610ae1565b61041661049a366004612a45565b610b13565b610333610b1d565b6104d26104b53660046129f3565b6001600160a01b039081165f908152600860205260409020541690565b6040516001600160a01b039091168152602001610322565b6103c06a084595161401484a00000081565b61041661050a3660046129f3565b610b95565b600c5460ff16610316565b61052d6105283660046129f3565b610ba4565b60405163ffffffff9091168152602001610322565b6103c06105503660046129f3565b6001600160a01b03165f9081526020819052604090205490565b6104166105783660046129cb565b610bae565b6103c061058b3660046129f3565b610bc3565b6103c060105481565b610416610bcd565b6105a9610bff565b6040516103229796959493929190612a86565b6103c06105ca366004612a45565b610c41565b6103166105dd366004612a5c565b610c65565b6105ea610c8f565b60405165ffffffffffff9091168152602001610322565b610333610c98565b6103c06106173660046129f3565b610ca7565b6103c0600e5481565b6103c05f81565b61041661063a366004612a45565b610cc7565b61031661064d3660046129cb565b610e0c565b610416610660366004612a0c565b610e19565b6103c0600d5481565b61041661102b565b610416610684366004612b2d565b61105c565b610416610697366004612b81565b611118565b6104166106aa366004612c01565b6112cc565b6103c07f9f2df0fed2c77648de5860a4cc508cd0818c85b8b8a1ab4ceeef8d981c8956a681565b6104166106e4366004612a5c565b611402565b6103c0611426565b6103c06106ff366004612c66565b6001600160a01b039182165f90815260016020908152604080832093909416825291909152205490565b6103c07f65d7a28e3265b37a6474929f336521b332c1681b933f6cb9f3376673440d862a81565b61076361075e366004612c8e565b611446565b60408051825165ffffffffffff1681526020928301516001600160d01b03169281019290925201610322565b6103c061079d3660046129f3565b61146a565b5f6001600160e01b03198216637965db0b60e01b14806107d257506301ffc9a760e01b6001600160e01b03198316145b92915050565b6060600380546107e790612ccb565b80601f016020809104026020016040519081016040528092919081815260200182805461081390612ccb565b801561085e5780601f106108355761010080835404028352916020019161085e565b820191905f5260205f20905b81548152906001019060200180831161084157829003601f168201915b5050505050905090565b5f3361087581858561148a565b5060019392505050565b6001600160a01b0381165f908152600f60205260408120805460018201548392839290916108ac87611497565b935093509350509193909250565b5f336108c7858285611504565b6108d285858561157a565b506001949350505050565b6108e56115d7565b6108ed6115f2565b335f908152600f60205260409020805482111561094a5760405162461bcd60e51b815260206004820152601660248201527515d2ce9a5b9cdd59999a58da595b9d081cdd185ad95960521b60448201526064015b60405180910390fd5b5f61095433611497565b905082825f015f8282546109689190612d17565b925050819055508260105f8282546109809190612d17565b90915550610991905030338561157a565b5f811180156109bf57506b204fce5e3e25026110000000816109b260025490565b6109bc9190612d2a565b11155b156109ce576109ce3382611616565b81546109da575f6109dc565b425b6001830155604080518481526020810183905233917f7fc4727e062e336010f2c282598ef5f14facb3de68cf8195c2f23e1454b2b74e910160405180910390a25050610a3460015f80516020612e4783398151915255565b50565b5f828152600b6020526040902060010154610a518161164a565b610a5b8383611654565b50505050565b5f610a6a6116e5565b905090565b6001600160a01b0381163314610a985760405163334bd91960e11b815260040160405180910390fd5b610aa2828261180e565b505050565b5f610ad1610ab483611879565b6001600160a01b0385165f908152600960205260409020906118c7565b6001600160d01b03169392505050565b7f65d7a28e3265b37a6474929f336521b332c1681b933f6cb9f3376673440d862a610b0b8161164a565b610a34611977565b610a3433826119c9565b6060610b276119fd565b65ffffffffffff16610b37610c8f565b65ffffffffffff1614610b5d576040516301bfc1c560e61b815260040160405180910390fd5b5060408051808201909152601d81527f6d6f64653d626c6f636b6e756d6265722666726f6d3d64656661756c74000000602082015290565b33610ba08183611a07565b5050565b5f6107d282611a78565b610bb9823383611504565b610ba082826119c9565b5f6107d282611a99565b7f65d7a28e3265b37a6474929f336521b332c1681b933f6cb9f3376673440d862a610bf78161164a565b610a34611ab6565b5f6060805f805f6060610c10611af3565b610c18611b20565b604080515f80825260208201909252600f60f81b9b939a50919850469750309650945092509050565b5f610c56610c4e83611879565b600a906118c7565b6001600160d01b031692915050565b5f918252600b602090815260408084206001600160a01b0393909316845291905290205460ff1690565b5f610a6a6119fd565b6060600480546107e790612ccb565b6001600160a01b0381165f908152600960205260408120610c5690611b4d565b610ccf6115d7565b610cd76115f2565b5f8111610d135760405162461bcd60e51b815260206004820152600a6024820152690574b3a7374616b6520360b41b6044820152606401610941565b335f90815260208190526040902054811115610d5e5760405162461bcd60e51b815260206004820152600a602482015269574b3a62616c616e636560b01b6044820152606401610941565b610d6733611b84565b610d7233308361157a565b335f908152600f602052604081208054839290610d90908490612d2a565b9091555050335f908152600f602052604081204260019091015560108054839290610dbc908490612d2a565b909155505060405181815233907f9e71bc8eea02a63969f509818f2dafb9254532904319f9dbda79b67bd34a5f3d9060200160405180910390a2610a3460015f80516020612e4783398151915255565b5f3361087581858561157a565b5f610e238161164a565b6001600160a01b038316610e635760405162461bcd60e51b81526020600482015260076024820152660574b3a746f3d360cc1b6044820152606401610941565b306001600160a01b03851603610efb57601054305f90815260208190526040812054909110610e92575f610eae565b601054305f90815260208190526040902054610eae9190612d17565b905080831115610ef95760405162461bcd60e51b815260206004820152601660248201527515d2ce98d85b9b9bdd08191c985a5b881cdd185ad95960521b6044820152606401610941565b505b6040516001600160a01b038481166024830152604482018490525f919086169060640160408051601f198184030181529181526020820180516001600160e01b031663a9059cbb60e01b17905251610f539190612d3d565b5f604051808303815f865af19150503d805f8114610f8c576040519150601f19603f3d011682016040523d82523d5f602084013e610f91565b606091505b5050905080610fd65760405162461bcd60e51b815260206004820152601160248201527015d2ce9c9958dbdd995c8819985a5b1959607a1b6044820152606401610941565b604080516001600160a01b0387811682528616602082015290810184905233907f298cc9628d65a4502fd95dedda69c602e88268251cbdb5c71f5005c6ca4430aa906060015b60405180910390a25050505050565b6110336115d7565b61103b6115f2565b61104433611b84565b61105a60015f80516020612e4783398151915255565b565b8342111561108057604051632341d78760e11b815260048101859052602401610941565b604080517fe48329057bfd03d55e49b547132e39cffd9c1820ad7b9d4c5307691425d15adf60208201526001600160a01b0388169181019190915260608101869052608081018590525f906110f9906110f19060a00160405160208183030381529060405280519060200120611c33565b858585611c5f565b90506111058187611c8b565b61110f8188611a07565b50505050505050565b7f9f2df0fed2c77648de5860a4cc508cd0818c85b8b8a1ab4ceeef8d981c8956a66111428161164a565b61114a6115f2565b6001600160a01b03851661118f5760405162461bcd60e51b815260206004820152600c60248201526b0574b3a6d696e7420746f20360a41b6044820152606401610941565b6b204fce5e3e25026110000000846111a660025490565b6111b09190612d2a565b11156111f65760405162461bcd60e51b8152602060048201526015602482015274574b3a65786365656473204d41585f535550504c5960581b6044820152606401610941565b600e546112069062015180612d2a565b4210611215575f600d5542600e555b6a084595161401484a00000084600d5461122f9190612d2a565b111561126e5760405162461bcd60e51b815260206004820152600e60248201526d15d2ce99185a5b1e481b1a5b5a5d60921b6044820152606401610941565b83600d5f82825461127f9190612d2a565b9091555061128f90508585611616565b846001600160a01b03167fe7cd4ce7f2a465edc730269a1305e8a48bad821e8fb7e152ec413829c01a53c485858560405161101c93929190612d58565b834211156112f05760405163313c898160e11b815260048101859052602401610941565b5f7f6e71edae12b1b97f4d1f60370fef10105fa2faae0126114a169c64845d6126c988888861133b8c6001600160a01b03165f90815260076020526040902080546001810190915590565b6040805160208101969096526001600160a01b0394851690860152929091166060840152608083015260a082015260c0810186905260e0016040516020818303038152906040528051906020012090505f61139582611c33565b90505f6113a482878787611c5f565b9050896001600160a01b0316816001600160a01b0316146113eb576040516325c0072360e11b81526001600160a01b0380831660048301528b166024820152604401610941565b6113f68a8a8a61148a565b50505050505050505050565b5f828152600b602052604090206001015461141c8161164a565b610a5b838361180e565b5f61143060025490565b610a6a906b204fce5e3e25026110000000612d17565b604080518082019091525f80825260208201526114638383611cdd565b9392505050565b5f6107d282611497565b5f6114638284612d8d565b5f6114638284612db4565b610aa28383836001611d11565b6001600160a01b0381165f908152600f60205260408120805415806114be57506001810154155b156114cb57505f92915050565b64496cebb8008160010154426114e19190612d17565b82546114f0906101f490612dd4565b6114fa9190612dd4565b6114639190612dff565b6001600160a01b038381165f908152600160209081526040808320938616835292905220545f19811015610a5b578181101561156c57604051637dc7a0d960e11b81526001600160a01b03841660048201526024810182905260448101839052606401610941565b610a5b84848484035f611d11565b6001600160a01b0383166115a357604051634b637e8f60e11b81525f6004820152602401610941565b6001600160a01b0382166115cc5760405163ec442f0560e01b81525f6004820152602401610941565b610aa2838383611de3565b6115df611e51565b60025f80516020612e4783398151915255565b600c5460ff161561105a5760405163d93c066560e01b815260040160405180910390fd5b6001600160a01b03821661163f5760405163ec442f0560e01b81525f6004820152602401610941565b610ba05f8383611de3565b610a348133611e80565b5f61165f8383610c65565b6116de575f838152600b602090815260408083206001600160a01b03861684529091529020805460ff191660011790556116963390565b6001600160a01b0316826001600160a01b0316847f2f8788117e7eff1d82e926ec794901d17c78024a50270940304540a733656f0d60405160405180910390a45060016107d2565b505f6107d2565b5f306001600160a01b037f00000000000000000000000000000000000000000000000000000000000000001614801561173d57507f000000000000000000000000000000000000000000000000000000000000000046145b1561176757507f000000000000000000000000000000000000000000000000000000000000000090565b610a6a604080517f8b73c3c69bb8fe3d512ecc4cf759cc79239f7b179b0ffacaa9a75d522b39400f60208201527f0000000000000000000000000000000000000000000000000000000000000000918101919091527f000000000000000000000000000000000000000000000000000000000000000060608201524660808201523060a08201525f9060c00160405160208183030381529060405280519060200120905090565b5f6118198383610c65565b156116de575f838152600b602090815260408083206001600160a01b0386168085529252808320805460ff1916905551339286917ff6391f5c32d9c69d2a47ea670b442974b53935d1edc7fd64eb21e047a839171b9190a45060016107d2565b5f80611883610c8f565b90508065ffffffffffff1683106118be57604051637669fc0f60e11b81526004810184905265ffffffffffff82166024820152604401610941565b61146383611eb9565b81545f9081816005811115611923575f6118e084611eef565b6118ea9085612d17565b5f8881526020902090915081015465ffffffffffff908116908716101561191357809150611921565b61191e816001612d2a565b92505b505b5f61193087878585612047565b9050801561196a5761195487611947600184612d17565b5f91825260209091200190565b54600160301b90046001600160d01b031661196c565b5f5b979650505050505050565b61197f61209d565b600c805460ff191690557f5db9ee0a495bf2e6ff9c91a7834c1ba4fdd244a5e8aa4e537bd38aeae4b073aa335b6040516001600160a01b03909116815260200160405180910390a1565b6001600160a01b0382166119f257604051634b637e8f60e11b81525f6004820152602401610941565b610ba0825f83611de3565b5f610a6a43611eb9565b6001600160a01b038281165f8181526008602052604080822080548686166001600160a01b0319821681179092559151919094169392849290917f3134e8a2e6d97e929a7e54011ea5485d7d196dd5f0ba4d4ef95803e8e3fc257f9190a4610aa28183611a73866120c0565b6120dd565b6001600160a01b0381165f908152600960205260408120546107d290612237565b6001600160a01b0381165f908152600760205260408120546107d2565b611abe6115f2565b600c805460ff191660011790557f62e78cea01bee320cd4e420270b5ea74000d11b0c9f74754ebdbfc544b05a2586119ac3390565b6060610a6a7f00000000000000000000000000000000000000000000000000000000000000006005612267565b6060610a6a7f00000000000000000000000000000000000000000000000000000000000000006006612267565b80545f908015611b7c57611b6683611947600184612d17565b54600160301b90046001600160d01b0316611463565b5f9392505050565b5f611b8e82611497565b9050801580611bbb57506b204fce5e3e2502611000000081611baf60025490565b611bb99190612d2a565b115b15611bc4575050565b6001600160a01b0382165f908152600f6020526040902042600190910155611bec8282611616565b816001600160a01b03167f106f923f993c2149d49b4255ff723acafa1f2d94393f561d3eda32ae348f724182604051611c2791815260200190565b60405180910390a25050565b5f6107d2611c3f6116e5565b8360405161190160f01b8152600281019290925260228201526042902090565b5f805f80611c6f88888888612310565b925092509250611c7f82826123d8565b50909695505050505050565b6001600160a01b0382165f908152600760205260409020805460018101909155818114610aa2576040516301d4b62360e61b81526001600160a01b038416600482015260248101829052604401610941565b604080518082019091525f80825260208201526001600160a01b0383165f9081526009602052604090206114639083612490565b6001600160a01b038416611d3a5760405163e602df0560e01b81525f6004820152602401610941565b6001600160a01b038316611d6357604051634a1406b160e11b81525f6004820152602401610941565b6001600160a01b038085165f9081526001602090815260408083209387168352929052208290558015610a5b57826001600160a01b0316846001600160a01b03167f8c5be1e5ebec7d5bd14f71427d1e84f3dd0314c0f7b2291e5b200ac8c7c3b92584604051611dd591815260200190565b60405180910390a350505050565b600c5460ff161580611dfc57506001600160a01b038316155b80611e0e57506001600160a01b038216155b611e465760405162461bcd60e51b815260206004820152600960248201526815d2ce9c185d5cd95960ba1b6044820152606401610941565b610aa28383836124fd565b5f80516020612e478339815191525460020361105a57604051633ee5aeb560e01b815260040160405180910390fd5b611e8a8282610c65565b610ba05760405163e2517d3f60e01b81526001600160a01b038216600482015260248101839052604401610941565b5f65ffffffffffff821115611eeb576040516306dfcc6560e41b81526030600482015260248101839052604401610941565b5090565b5f60018211611efc575090565b816001600160801b8210611f155760809190911c9060401b5b680100000000000000008210611f305760409190911c9060201b5b6401000000008210611f475760209190911c9060101b5b620100008210611f5c5760109190911c9060081b5b6101008210611f705760089190911c9060041b5b60108210611f835760049190911c9060021b5b60048210611f8f5760011b5b600302600190811c90818581611fa757611fa7612deb565b048201901c90506001818581611fbf57611fbf612deb565b048201901c90506001818581611fd757611fd7612deb565b048201901c90506001818581611fef57611fef612deb565b048201901c9050600181858161200757612007612deb565b048201901c9050600181858161201f5761201f612deb565b048201901c905061203e81858161203857612038612deb565b04821190565b90039392505050565b5f5b81831015612095575f85815260209020838316600285851804019081015465ffffffffffff868116911611156120815780925061208f565b61208c816001612d2a565b93505b50612049565b509392505050565b600c5460ff1661105a57604051638dfc202b60e01b815260040160405180910390fd5b6001600160a01b0381165f908152602081905260408120546107d2565b816001600160a01b0316836001600160a01b0316141580156120fe57505f81115b15610aa2576001600160a01b038316156121a5576001600160a01b0383165f90815260096020526040812081906121409061147f61213b86612563565b612596565b6001600160d01b031691506001600160d01b03169150846001600160a01b03167fdec2bacdd2f05b59de34da9b523dff8be42e5e38e818c82fdb0bae774387a724838360405161219a929190918252602082015260400190565b60405180910390a250505b6001600160a01b03821615610aa2576001600160a01b0382165f90815260096020526040812081906121dd9061147461213b86612563565b6001600160d01b031691506001600160d01b03169150836001600160a01b03167fdec2bacdd2f05b59de34da9b523dff8be42e5e38e818c82fdb0bae774387a724838360405161101c929190918252602082015260400190565b5f63ffffffff821115611eeb576040516306dfcc6560e41b81526020600482015260248101839052604401610941565b606060ff83146122815761227a836125ce565b90506107d2565b81805461228d90612ccb565b80601f01602080910402602001604051908101604052809291908181526020018280546122b990612ccb565b80156123045780601f106122db57610100808354040283529160200191612304565b820191905f5260205f20905b8154815290600101906020018083116122e757829003601f168201915b505050505090506107d2565b5f80807f7fffffffffffffffffffffffffffffff5d576e7357a4501ddfe92f46681b20a084111561234957505f915060039050826123ce565b604080515f808252602082018084528a905260ff891692820192909252606081018790526080810186905260019060a0016020604051602081039080840390855afa15801561239a573d5f803e3d5ffd5b5050604051601f1901519150506001600160a01b0381166123c557505f9250600191508290506123ce565b92505f91508190505b9450945094915050565b5f8260038111156123eb576123eb612e1e565b036123f4575050565b600182600381111561240857612408612e1e565b036124265760405163f645eedf60e01b815260040160405180910390fd5b600282600381111561243a5761243a612e1e565b0361245b5760405163fce698f760e01b815260048101829052602401610941565b600382600381111561246f5761246f612e1e565b03610ba0576040516335e2f38360e21b815260048101829052602401610941565b604080518082019091525f8082526020820152825f018263ffffffff16815481106124bd576124bd612e32565b5f9182526020918290206040805180820190915291015465ffffffffffff81168252600160301b90046001600160d01b0316918101919091529392505050565b61250883838361260b565b6001600160a01b038316612558575f61252060025490565b90506001600160d01b038082111561255557604051630e58ae9360e11b81526004810183905260248101829052604401610941565b50505b610aa2838383612731565b5f6001600160d01b03821115611eeb576040516306dfcc6560e41b815260d0600482015260248101839052604401610941565b5f806125c16125a3610c8f565b6125b96125af88611b4d565b868863ffffffff16565b8791906127a6565b915091505b935093915050565b60605f6125da836127b3565b6040805160208082528183019092529192505f91906020820181803683375050509182525060208101929092525090565b6001600160a01b038316612635578060025f82825461262a9190612d2a565b909155506126a59050565b6001600160a01b0383165f90815260208190526040902054818110156126875760405163391434e360e21b81526001600160a01b03851660048201526024810182905260448101839052606401610941565b6001600160a01b0384165f9081526020819052604090209082900390555b6001600160a01b0382166126c1576002805482900390556126df565b6001600160a01b0382165f9081526020819052604090208054820190555b816001600160a01b0316836001600160a01b03167fddf252ad1be2c89b69c2b068fc378daa952ba7f163c4a11628f55a4df523b3ef8360405161272491815260200190565b60405180910390a3505050565b6001600160a01b03831661275357612750600a61147461213b84612563565b50505b6001600160a01b03821661277557612772600a61147f61213b84612563565b50505b6001600160a01b038381165f90815260086020526040808220548584168352912054610aa2929182169116836120dd565b5f806125c18585856127da565b5f60ff8216601f8111156107d257604051632cd44ac360e21b815260040160405180910390fd5b82545f90819080156128d0575f6127f687611947600185612d17565b805490915065ffffffffffff80821691600160301b90046001600160d01b031690881682111561283957604051632520601d60e01b815260040160405180910390fd5b8765ffffffffffff168265ffffffffffff160361287257825465ffffffffffff16600160301b6001600160d01b038916021783556128c2565b6040805180820190915265ffffffffffff808a1682526001600160d01b03808a1660208085019182528d54600181018f555f8f81529190912094519151909216600160301b029216919091179101555b94508593506125c692505050565b50506040805180820190915265ffffffffffff80851682526001600160d01b0380851660208085019182528854600181018a555f8a815291822095519251909316600160301b0291909316179201919091559050816125c6565b5f6020828403121561293a575f80fd5b81356001600160e01b031981168114611463575f80fd5b5f5b8381101561296b578181015183820152602001612953565b50505f910152565b5f815180845261298a816020860160208601612951565b601f01601f19169290920160200192915050565b602081525f6114636020830184612973565b80356001600160a01b03811681146129c6575f80fd5b919050565b5f80604083850312156129dc575f80fd5b6129e5836129b0565b946020939093013593505050565b5f60208284031215612a03575f80fd5b611463826129b0565b5f805f60608486031215612a1e575f80fd5b612a27846129b0565b9250612a35602085016129b0565b9150604084013590509250925092565b5f60208284031215612a55575f80fd5b5035919050565b5f8060408385031215612a6d575f80fd5b82359150612a7d602084016129b0565b90509250929050565b60ff60f81b881681525f602060e06020840152612aa660e084018a612973565b8381036040850152612ab8818a612973565b606085018990526001600160a01b038816608086015260a0850187905284810360c0860152855180825260208088019350909101905f5b81811015612b0b57835183529284019291840191600101612aef565b50909c9b505050505050505050505050565b803560ff811681146129c6575f80fd5b5f805f805f8060c08789031215612b42575f80fd5b612b4b876129b0565b95506020870135945060408701359350612b6760608801612b1d565b92506080870135915060a087013590509295509295509295565b5f805f8060608587031215612b94575f80fd5b612b9d856129b0565b935060208501359250604085013567ffffffffffffffff80821115612bc0575f80fd5b818701915087601f830112612bd3575f80fd5b813581811115612be1575f80fd5b886020828501011115612bf2575f80fd5b95989497505060200194505050565b5f805f805f805f60e0888a031215612c17575f80fd5b612c20886129b0565b9650612c2e602089016129b0565b95506040880135945060608801359350612c4a60808901612b1d565b925060a0880135915060c0880135905092959891949750929550565b5f8060408385031215612c77575f80fd5b612c80836129b0565b9150612a7d602084016129b0565b5f8060408385031215612c9f575f80fd5b612ca8836129b0565b9150602083013563ffffffff81168114612cc0575f80fd5b809150509250929050565b600181811c90821680612cdf57607f821691505b602082108103612cfd57634e487b7160e01b5f52602260045260245ffd5b50919050565b634e487b7160e01b5f52601160045260245ffd5b818103818111156107d2576107d2612d03565b808201808211156107d2576107d2612d03565b5f8251612d4e818460208701612951565b9190910192915050565b83815260406020820152816040820152818360608301375f818301606090810191909152601f909201601f1916010192915050565b6001600160d01b03818116838216019080821115612dad57612dad612d03565b5092915050565b6001600160d01b03828116828216039080821115612dad57612dad612d03565b80820281158282048414176107d2576107d2612d03565b634e487b7160e01b5f52601260045260245ffd5b5f82612e1957634e487b7160e01b5f52601260045260245ffd5b500490565b634e487b7160e01b5f52602160045260245ffd5b634e487b7160e01b5f52603260045260245ffdfe9b779b17422d0df92223018b32b4d1fa46e071723d6817e2486d003becc55f00a2646970667358221220bb58ac74814568f8d88d45d658faed65f0febcfb5c385d67f0d378cb131afa0664736f6c63430008180033dec2bacdd2f05b59de34da9b523dff8be42e5e38e818c82fdb0bae774387a724",
  "linkReferences": {},
  "deployedLinkReferences": {}
}